{
  "_format": "hh-sol-artifact-1",
  "contractName": "Certificate",
  "sourceName": "contracts/Certificate.sol",
  "abi": [
    {
      "inputs": [],
      "stateMutability": "nonpayable",
      "type": "constructor"
    },
    {
      "anonymous": false,
      "inputs": [
        {
          "indexed": true,
          "internalType": "string",
          "name": "certId",
          "type": "string"
        },
        {
          "indexed": false,
          "internalType": "string",
          "name": "studentName",
          "type": "string"
        },
        {
          "indexed": false,
          "internalType": "string",
          "name": "issuer",
          "type": "string"
        },
        {
          "indexed": false,
          "internalType": "uint256",
          "name": "timestamp",
          "type": "uint256"
        }
      ],
      "name": "CertificateIssued",
      "type": "event"
    },
    {
      "anonymous": false,
      "inputs": [
        {
          "indexed": true,
          "internalType": "string",
          "name": "certId",
          "type": "string"
        },
        {
          "indexed": false,
          "internalType": "uint256",
          "name": "timestamp",
          "type": "uint256"
        }
      ],
      "name": "CertificateRevoked",
      "type": "event"
    },
    {
      "inputs": [],
      "name": "admin",
      "outputs": [
        {
          "internalType": "address",
          "name": "",
          "type": "address"
        }
      ],
      "stateMutability": "view",
      "type": "function"
    },
    {
      "inputs": [
        {
          "internalType": "string",
          "name": "_certId",
          "type": "string"
        },
        {
          "internalType": "string",
          "name": "_studentName",
          "type": "string"
        },
        {
          "internalType": "string",
          "name": "_course",
          "type": "string"
        },
        {
          "internalType": "string",
          "name": "_issuer",
          "type": "string"
        }
      ],
      "name": "issueCertificate",
      "outputs": [],
      "stateMutability": "nonpayable",
      "type": "function"
    },
    {
      "inputs": [
        {
          "internalType": "string",
          "name": "_certId",
          "type": "string"
        }
      ],
      "name": "revokeCertificate",
      "outputs": [],
      "stateMutability": "nonpayable",
      "type": "function"
    },
    {
      "inputs": [
        {
          "internalType": "string",
          "name": "_certId",
          "type": "string"
        }
      ],
      "name": "verifyCertificate",
      "outputs": [
        {
          "components": [
            {
              "internalType": "string",
              "name": "certId",
              "type": "string"
            },
            {
              "internalType": "string",
              "name": "studentName",
              "type": "string"
            },
            {
              "internalType": "string",
              "name": "course",
              "type": "string"
            },
            {
              "internalType": "string",
              "name": "issuer",
              "type": "string"
            },
            {
              "internalType": "uint256",
              "name": "issuedAt",
              "type": "uint256"
            },
            {
              "internalType": "bool",
              "name": "isValid",
              "type": "bool"
            }
          ],
          "internalType": "struct Certificate.Cert",
          "name": "",
          "type": "tuple"
        }
      ],
      "stateMutability": "view",
      "type": "function"
    }
  ],
  "bytecode": "0x608060405234801561001057600080fd5b50336000806101000a81548173ffffffffffffffffffffffffffffffffffffffff021916908373ffffffffffffffffffffffffffffffffffffffff160217905550611202806100606000396000f3fe608060405234801561001057600080fd5b506004361061004c5760003560e01c8063142e154214610051578063818a29941461006d5780638b23d87514610089578063f851a440146100b9575b600080fd5b61006b60048036038101906100669190610943565b6100d7565b005b6100876004803603810190610082919061098c565b61025d565b005b6100a3600480360381019061009e9190610943565b610484565b6040516100b09190610bb4565b60405180910390f35b6100c161078d565b6040516100ce9190610c17565b60405180910390f35b60008054906101000a900473ffffffffffffffffffffffffffffffffffffffff1673ffffffffffffffffffffffffffffffffffffffff163373ffffffffffffffffffffffffffffffffffffffff1614610165576040517f08c379a000000000000000000000000000000000000000000000000000000000815260040161015c90610c8f565b60405180910390fd5b6001816040516101759190610ceb565b908152602001604051809103902060050160009054906101000a900460ff166101d3576040517f08c379a00000000000000000000000000000000000000000000000000000000081526004016101ca90610d4e565b60405180910390fd5b60006001826040516101e59190610ceb565b908152602001604051809103902060050160006101000a81548160ff0219169083151502179055508060405161021b9190610ceb565b60405180910390207f57bf3aad622f3cf905e8c86d1e40e1de99f3ea3a1c14decf97a8671c24fbe557426040516102529190610d7d565b60405180910390a250565b60008054906101000a900473ffffffffffffffffffffffffffffffffffffffff1673ffffffffffffffffffffffffffffffffffffffff163373ffffffffffffffffffffffffffffffffffffffff16146102eb576040517f08c379a00000000000000000000000000000000000000000000000000000000081526004016102e290610c8f565b60405180910390fd5b6001846040516102fb9190610ceb565b908152602001604051809103902060050160009054906101000a900460ff161561035a576040517f08c379a000000000000000000000000000000000000000000000000000000000815260040161035190610de4565b60405180910390fd5b6040518060c001604052808581526020018481526020018381526020018281526020014281526020016001151581525060018560405161039a9190610ceb565b908152602001604051809103902060008201518160000190816103bd9190611010565b5060208201518160010190816103d39190611010565b5060408201518160020190816103e99190611010565b5060608201518160030190816103ff9190611010565b506080820151816004015560a08201518160050160006101000a81548160ff0219169083151502179055509050508360405161043b9190610ceb565b60405180910390207f96271eaf370790942baffd60b2c0f9dcadd6d8141dbca33de0c8fb12f0efd4848483426040516104769392919061111b565b60405180910390a250505050565b61048c6107b1565b600060018360405161049e9190610ceb565b908152602001604051809103902060040154036104f0576040517f08c379a00000000000000000000000000000000000000000000000000000000081526004016104e7906111ac565b60405180910390fd5b6001826040516105009190610ceb565b90815260200160405180910390206040518060c001604052908160008201805461052990610e33565b80601f016020809104026020016040519081016040528092919081815260200182805461055590610e33565b80156105a25780601f10610577576101008083540402835291602001916105a2565b820191906000526020600020905b81548152906001019060200180831161058557829003601f168201915b505050505081526020016001820180546105bb90610e33565b80601f01602080910402602001604051908101604052809291908181526020018280546105e790610e33565b80156106345780601f1061060957610100808354040283529160200191610634565b820191906000526020600020905b81548152906001019060200180831161061757829003601f168201915b5050505050815260200160028201805461064d90610e33565b80601f016020809104026020016040519081016040528092919081815260200182805461067990610e33565b80156106c65780601f1061069b576101008083540402835291602001916106c6565b820191906000526020600020905b8154815290600101906020018083116106a957829003601f168201915b505050505081526020016003820180546106df90610e33565b80601f016020809104026020016040519081016040528092919081815260200182805461070b90610e33565b80156107585780601f1061072d57610100808354040283529160200191610758565b820191906000526020600020905b81548152906001019060200180831161073b57829003601f168201915b50505050508152602001600482015481526020016005820160009054906101000a900460ff1615151515815250509050919050565b60008054906101000a900473ffffffffffffffffffffffffffffffffffffffff1681565b6040518060c0016040528060608152602001606081526020016060815260200160608152602001600081526020016000151581525090565b6000604051905090565b600080fd5b600080fd5b600080fd5b600080fd5b6000601f19601f8301169050919050565b7f4e487b7100000000000000000000000000000000000000000000000000000000600052604160045260246000fd5b61085082610807565b810181811067ffffffffffffffff8211171561086f5761086e610818565b5b80604052505050565b60006108826107e9565b905061088e8282610847565b919050565b600067ffffffffffffffff8211156108ae576108ad610818565b5b6108b782610807565b9050602081019050919050565b82818337600083830152505050565b60006108e66108e184610893565b610878565b90508281526020810184848401111561090257610901610802565b5b61090d8482856108c4565b509392505050565b600082601f83011261092a576109296107fd565b5b813561093a8482602086016108d3565b91505092915050565b600060208284031215610959576109586107f3565b5b600082013567ffffffffffffffff811115610977576109766107f8565b5b61098384828501610915565b91505092915050565b600080600080608085870312156109a6576109a56107f3565b5b600085013567ffffffffffffffff8111156109c4576109c36107f8565b5b6109d087828801610915565b945050602085013567ffffffffffffffff8111156109f1576109f06107f8565b5b6109fd87828801610915565b935050604085013567ffffffffffffffff811115610a1e57610a1d6107f8565b5b610a2a87828801610915565b925050606085013567ffffffffffffffff811115610a4b57610a4a6107f8565b5b610a5787828801610915565b91505092959194509250565b600081519050919050565b600082825260208201905092915050565b60005b83811015610a9d578082015181840152602081019050610a82565b60008484015250505050565b6000610ab482610a63565b610abe8185610a6e565b9350610ace818560208601610a7f565b610ad781610807565b840191505092915050565b6000819050919050565b610af581610ae2565b82525050565b60008115159050919050565b610b1081610afb565b82525050565b600060c0830160008301518482036000860152610b338282610aa9565b91505060208301518482036020860152610b4d8282610aa9565b91505060408301518482036040860152610b678282610aa9565b91505060608301518482036060860152610b818282610aa9565b9150506080830151610b966080860182610aec565b5060a0830151610ba960a0860182610b07565b508091505092915050565b60006020820190508181036000830152610bce8184610b16565b905092915050565b600073ffffffffffffffffffffffffffffffffffffffff82169050919050565b6000610c0182610bd6565b9050919050565b610c1181610bf6565b82525050565b6000602082019050610c2c6000830184610c08565b92915050565b600082825260208201905092915050565b7f4e6f7420617574686f72697a6564000000000000000000000000000000000000600082015250565b6000610c79600e83610c32565b9150610c8482610c43565b602082019050919050565b60006020820190508181036000830152610ca881610c6c565b9050919050565b600081905092915050565b6000610cc582610a63565b610ccf8185610caf565b9350610cdf818560208601610a7f565b80840191505092915050565b6000610cf78284610cba565b915081905092915050565b7f416c7265616479207265766f6b65640000000000000000000000000000000000600082015250565b6000610d38600f83610c32565b9150610d4382610d02565b602082019050919050565b60006020820190508181036000830152610d6781610d2b565b9050919050565b610d7781610ae2565b82525050565b6000602082019050610d926000830184610d6e565b92915050565b7f416c726561647920657869737473000000000000000000000000000000000000600082015250565b6000610dce600e83610c32565b9150610dd982610d98565b602082019050919050565b60006020820190508181036000830152610dfd81610dc1565b9050919050565b7f4e487b7100000000000000000000000000000000000000000000000000000000600052602260045260246000fd5b60006002820490506001821680610e4b57607f821691505b602082108103610e5e57610e5d610e04565b5b50919050565b60008190508160005260206000209050919050565b60006020601f8301049050919050565b600082821b905092915050565b600060088302610ec67fffffffffffffffffffffffffffffffffffffffffffffffffffffffffffffffff82610e89565b610ed08683610e89565b95508019841693508086168417925050509392505050565b6000819050919050565b6000610f0d610f08610f0384610ae2565b610ee8565b610ae2565b9050919050565b6000819050919050565b610f2783610ef2565b610f3b610f3382610f14565b848454610e96565b825550505050565b600090565b610f50610f43565b610f5b818484610f1e565b505050565b5b81811015610f7f57610f74600082610f48565b600181019050610f61565b5050565b601f821115610fc457610f9581610e64565b610f9e84610e79565b81016020851015610fad578190505b610fc1610fb985610e79565b830182610f60565b50505b505050565b600082821c905092915050565b6000610fe760001984600802610fc9565b1980831691505092915050565b60006110008383610fd6565b9150826002028217905092915050565b61101982610a63565b67ffffffffffffffff81111561103257611031610818565b5b61103c8254610e33565b611047828285610f83565b600060209050601f83116001811461107a5760008415611068578287015190505b6110728582610ff4565b8655506110da565b601f19841661108886610e64565b60005b828110156110b05784890151825560018201915060208501945060208101905061108b565b868310156110cd57848901516110c9601f891682610fd6565b8355505b6001600288020188555050505b505050505050565b60006110ed82610a63565b6110f78185610c32565b9350611107818560208601610a7f565b61111081610807565b840191505092915050565b6000606082019050818103600083015261113581866110e2565b9050818103602083015261114981856110e2565b90506111586040830184610d6e565b949350505050565b7f4e6f7420666f756e640000000000000000000000000000000000000000000000600082015250565b6000611196600983610c32565b91506111a182611160565b602082019050919050565b600060208201905081810360008301526111c581611189565b905091905056fea2646970667358221220543699efd9b0bf3f469ac56e0205aa7f8a87c17b309aae6cd1b2480f12a8e89f64736f6c63430008180033",
  "linkReferences": {},
  "deployedLinkReferences": {}
}