{
  "_format": "hh-sol-artifact-1",
  "contractName": "Certificate",
  "sourceName": "contracts/Certificate.sol",
  "abi": [
    {
      "inputs": [],
      "stateMutability": "nonpayable",
      "type": "constructor"
    },
    {
      "anonymous": false,
      "inputs": [
        {
          "indexed": true,
          "internalType": "string",
          "name": "certId",
          "type": "string"
        },
        {
          "indexed": false,
          "internalType": "string",
          "name": "studentName",
          "type": "string"
        },
        {
          "indexed": false,
          "internalType": "string",
          "name": "issuer",
          "type": "string"
        },
        {
          "indexed": false,
          "internalType": "uint256",
          "name": "timestamp",
          "type": "uint256"
        }
      ],
      "name": "CertificateIssued",
      "type": "event"
    },
    {
      "anonymous": false,
      "inputs": [
        {
          "indexed": true,
          "internalType": "string",
          "name": "certId",
          "type": "string"
        },
        {
          "indexed": false,
          "internalType": "uint256",
          "name": "timestamp",
          "type": "uint256"
        }
      ],
      "name": "CertificateRevoked",
      "type": "event"
    },
    {
      "inputs": [],
      "name": "admin",
      "outputs": [
        {
          "internalType": "address",
          "name": "",
          "type": "address"
        }
      ],
      "stateMutability": "view",
      "type": "function"
    },
    {
      "inputs": [
        {
          "internalType": "string",
          "name": "_certId",
          "type": "string"
        },
        {
          "internalType": "string",
          "name": "_studentName",
          "type": "string"
        },
        {
          "internalType": "string",
          "name": "_course",
          "type": "string"
        },
        {
          "internalType": "string",
          "name": "_issuer",
          "type": "string"
        },
        {
          "internalType": "string",
          "name": "_ipfsHash",
          "type": "string"
        }
      ],
      "name": "issueCertificate",
      "outputs": [],
      "stateMutability": "nonpayable",
      "type": "function"
    },
    {
      "inputs": [
        {
          "internalType": "string",
          "name": "_certId",
          "type": "string"
        }
      ],
      "name": "revokeCertificate",
      "outputs": [],
      "stateMutability": "nonpayable",
      "type": "function"
    },
    {
      "inputs": [
        {
          "internalType": "string",
          "name": "_certId",
          "type": "string"
        }
      ],
      "name": "verifyCertificate",
      "outputs": [
        {
          "components": [
            {
              "internalType": "string",
              "name": "certId",
              "type": "string"
            },
            {
              "internalType": "string",
              "name": "studentName",
              "type": "string"
            },
            {
              "internalType": "string",
              "name": "course",
              "type": "string"
            },
            {
              "internalType": "string",
              "name": "issuer",
              "type": "string"
            },
            {
              "internalType": "string",
              "name": "ipfsHash",
              "type": "string"
            },
            {
              "internalType": "uint256",
              "name": "issuedAt",
              "type": "uint256"
            },
            {
              "internalType": "bool",
              "name": "isValid",
              "type": "bool"
            }
          ],
          "internalType": "struct Certificate.Cert",
          "name": "",
          "type": "tuple"
        }
      ],
      "stateMutability": "view",
      "type": "function"
    }
  ],
  "bytecode": "0x608060405234801561001057600080fd5b50336000806101000a81548173ffffffffffffffffffffffffffffffffffffffff021916908373ffffffffffffffffffffffffffffffffffffffff160217905550611302806100606000396000f3fe608060405234801561001057600080fd5b506004361061004c5760003560e01c8063142e154214610051578063353181581461006d5780638b23d87514610089578063f851a440146100b9575b600080fd5b61006b600480360381019061006691906109f9565b6100d7565b005b61008760048036038101906100829190610a42565b61025d565b005b6100a3600480360381019061009e91906109f9565b6104a1565b6040516100b09190610cb4565b60405180910390f35b6100c161083c565b6040516100ce9190610d17565b60405180910390f35b60008054906101000a900473ffffffffffffffffffffffffffffffffffffffff1673ffffffffffffffffffffffffffffffffffffffff163373ffffffffffffffffffffffffffffffffffffffff1614610165576040517f08c379a000000000000000000000000000000000000000000000000000000000815260040161015c90610d8f565b60405180910390fd5b6001816040516101759190610deb565b908152602001604051809103902060060160009054906101000a900460ff166101d3576040517f08c379a00000000000000000000000000000000000000000000000000000000081526004016101ca90610e4e565b60405180910390fd5b60006001826040516101e59190610deb565b908152602001604051809103902060060160006101000a81548160ff0219169083151502179055508060405161021b9190610deb565b60405180910390207f57bf3aad622f3cf905e8c86d1e40e1de99f3ea3a1c14decf97a8671c24fbe557426040516102529190610e7d565b60405180910390a250565b60008054906101000a900473ffffffffffffffffffffffffffffffffffffffff1673ffffffffffffffffffffffffffffffffffffffff163373ffffffffffffffffffffffffffffffffffffffff16146102eb576040517f08c379a00000000000000000000000000000000000000000000000000000000081526004016102e290610d8f565b60405180910390fd5b6001856040516102fb9190610deb565b908152602001604051809103902060060160009054906101000a900460ff161561035a576040517f08c379a000000000000000000000000000000000000000000000000000000000815260040161035190610ee4565b60405180910390fd5b6040518060e00160405280868152602001858152602001848152602001838152602001828152602001428152602001600115158152506001866040516103a09190610deb565b908152602001604051809103902060008201518160000190816103c39190611110565b5060208201518160010190816103d99190611110565b5060408201518160020190816103ef9190611110565b5060608201518160030190816104059190611110565b50608082015181600401908161041b9190611110565b5060a0820151816005015560c08201518160060160006101000a81548160ff021916908315150217905550905050846040516104579190610deb565b60405180910390207f96271eaf370790942baffd60b2c0f9dcadd6d8141dbca33de0c8fb12f0efd4848584426040516104929392919061121b565b60405180910390a25050505050565b6104a9610860565b60006001836040516104bb9190610deb565b9081526020016040518091039020600501540361050d576040517f08c379a0000000000000000000000000000000000000000000000000000000008152600401610504906112ac565b60405180910390fd5b60018260405161051d9190610deb565b90815260200160405180910390206040518060e001604052908160008201805461054690610f33565b80601f016020809104026020016040519081016040528092919081815260200182805461057290610f33565b80156105bf5780601f10610594576101008083540402835291602001916105bf565b820191906000526020600020905b8154815290600101906020018083116105a257829003601f168201915b505050505081526020016001820180546105d890610f33565b80601f016020809104026020016040519081016040528092919081815260200182805461060490610f33565b80156106515780601f1061062657610100808354040283529160200191610651565b820191906000526020600020905b81548152906001019060200180831161063457829003601f168201915b5050505050815260200160028201805461066a90610f33565b80601f016020809104026020016040519081016040528092919081815260200182805461069690610f33565b80156106e35780601f106106b8576101008083540402835291602001916106e3565b820191906000526020600020905b8154815290600101906020018083116106c657829003601f168201915b505050505081526020016003820180546106fc90610f33565b80601f016020809104026020016040519081016040528092919081815260200182805461072890610f33565b80156107755780601f1061074a57610100808354040283529160200191610775565b820191906000526020600020905b81548152906001019060200180831161075857829003601f168201915b5050505050815260200160048201805461078e90610f33565b80601f01602080910402602001604051908101604052809291908181526020018280546107ba90610f33565b80156108075780601f106107dc57610100808354040283529160200191610807565b820191906000526020600020905b8154815290600101906020018083116107ea57829003601f168201915b50505050508152602001600582015481526020016006820160009054906101000a900460ff1615151515815250509050919050565b60008054906101000a900473ffffffffffffffffffffffffffffffffffffffff1681565b6040518060e001604052806060815260200160608152602001606081526020016060815260200160608152602001600081526020016000151581525090565b6000604051905090565b600080fd5b600080fd5b600080fd5b600080fd5b6000601f19601f8301169050919050565b7f4e487b7100000000000000000000000000000000000000000000000000000000600052604160045260246000fd5b610906826108bd565b810181811067ffffffffffffffff82111715610925576109246108ce565b5b80604052505050565b600061093861089f565b905061094482826108fd565b919050565b600067ffffffffffffffff821115610964576109636108ce565b5b61096d826108bd565b9050602081019050919050565b82818337600083830152505050565b600061099c61099784610949565b61092e565b9050828152602081018484840111156109b8576109b76108b8565b5b6109c384828561097a565b509392505050565b600082601f8301126109e0576109df6108b3565b5b81356109f0848260208601610989565b91505092915050565b600060208284031215610a0f57610a0e6108a9565b5b600082013567ffffffffffffffff811115610a2d57610a2c6108ae565b5b610a39848285016109cb565b91505092915050565b600080600080600060a08688031215610a5e57610a5d6108a9565b5b600086013567ffffffffffffffff811115610a7c57610a7b6108ae565b5b610a88888289016109cb565b955050602086013567ffffffffffffffff811115610aa957610aa86108ae565b5b610ab5888289016109cb565b945050604086013567ffffffffffffffff811115610ad657610ad56108ae565b5b610ae2888289016109cb565b935050606086013567ffffffffffffffff811115610b0357610b026108ae565b5b610b0f888289016109cb565b925050608086013567ffffffffffffffff811115610b3057610b2f6108ae565b5b610b3c888289016109cb565b9150509295509295909350565b600081519050919050565b600082825260208201905092915050565b60005b83811015610b83578082015181840152602081019050610b68565b60008484015250505050565b6000610b9a82610b49565b610ba48185610b54565b9350610bb4818560208601610b65565b610bbd816108bd565b840191505092915050565b6000819050919050565b610bdb81610bc8565b82525050565b60008115159050919050565b610bf681610be1565b82525050565b600060e0830160008301518482036000860152610c198282610b8f565b91505060208301518482036020860152610c338282610b8f565b91505060408301518482036040860152610c4d8282610b8f565b91505060608301518482036060860152610c678282610b8f565b91505060808301518482036080860152610c818282610b8f565b91505060a0830151610c9660a0860182610bd2565b5060c0830151610ca960c0860182610bed565b508091505092915050565b60006020820190508181036000830152610cce8184610bfc565b905092915050565b600073ffffffffffffffffffffffffffffffffffffffff82169050919050565b6000610d0182610cd6565b9050919050565b610d1181610cf6565b82525050565b6000602082019050610d2c6000830184610d08565b92915050565b600082825260208201905092915050565b7f4e6f7420617574686f72697a6564000000000000000000000000000000000000600082015250565b6000610d79600e83610d32565b9150610d8482610d43565b602082019050919050565b60006020820190508181036000830152610da881610d6c565b9050919050565b600081905092915050565b6000610dc582610b49565b610dcf8185610daf565b9350610ddf818560208601610b65565b80840191505092915050565b6000610df78284610dba565b915081905092915050565b7f416c7265616479207265766f6b65640000000000000000000000000000000000600082015250565b6000610e38600f83610d32565b9150610e4382610e02565b602082019050919050565b60006020820190508181036000830152610e6781610e2b565b9050919050565b610e7781610bc8565b82525050565b6000602082019050610e926000830184610e6e565b92915050565b7f416c726561647920657869737473000000000000000000000000000000000000600082015250565b6000610ece600e83610d32565b9150610ed982610e98565b602082019050919050565b60006020820190508181036000830152610efd81610ec1565b9050919050565b7f4e487b7100000000000000000000000000000000000000000000000000000000600052602260045260246000fd5b60006002820490506001821680610f4b57607f821691505b602082108103610f5e57610f5d610f04565b5b50919050565b60008190508160005260206000209050919050565b60006020601f8301049050919050565b600082821b905092915050565b600060088302610fc67fffffffffffffffffffffffffffffffffffffffffffffffffffffffffffffffff82610f89565b610fd08683610f89565b95508019841693508086168417925050509392505050565b6000819050919050565b600061100d61100861100384610bc8565b610fe8565b610bc8565b9050919050565b6000819050919050565b61102783610ff2565b61103b61103382611014565b848454610f96565b825550505050565b600090565b611050611043565b61105b81848461101e565b505050565b5b8181101561107f57611074600082611048565b600181019050611061565b5050565b601f8211156110c45761109581610f64565b61109e84610f79565b810160208510156110ad578190505b6110c16110b985610f79565b830182611060565b50505b505050565b600082821c905092915050565b60006110e7600019846008026110c9565b1980831691505092915050565b600061110083836110d6565b9150826002028217905092915050565b61111982610b49565b67ffffffffffffffff811115611132576111316108ce565b5b61113c8254610f33565b611147828285611083565b600060209050601f83116001811461117a5760008415611168578287015190505b61117285826110f4565b8655506111da565b601f19841661118886610f64565b60005b828110156111b05784890151825560018201915060208501945060208101905061118b565b868310156111cd57848901516111c9601f8916826110d6565b8355505b6001600288020188555050505b505050505050565b60006111ed82610b49565b6111f78185610d32565b9350611207818560208601610b65565b611210816108bd565b840191505092915050565b6000606082019050818103600083015261123581866111e2565b9050818103602083015261124981856111e2565b90506112586040830184610e6e565b949350505050565b7f4e6f7420666f756e640000000000000000000000000000000000000000000000600082015250565b6000611296600983610d32565b91506112a182611260565b602082019050919050565b600060208201905081810360008301526112c581611289565b905091905056fea26469706673582212208fdf6cea1f438dccdf314c13918408943f6b8fb5a6ffa0f334541393782203cb64736f6c63430008180033",
  "linkReferences": {},
  "deployedLinkReferences": {}
}